:10047B004572726F720052483A0020543A0042752E
:10048B0069206D696E3A00204741533A30003000C5
:09049B00204741533A31003100C1
:100370008B498A4A894B120581E54B2FF9E54A3EA4
:10038000FAE924FFF9EA34FF85494CF54D894EC35B
:10039000854D83854E82E54B9582E54A9583503F96
:1003A000AB49AA4AA94B120123FF3395E0FEAB4C9F
:1003B000AA4DA94E120123FDAB49054BE54BAA4AB4
:1003C0007002054A14F9ED120169AD07AB4CE54E18
:1003D000154EAA4D7002154DF9ED12016980B0223B
:1002D2008E408F418B428A4389448E478F48C3EEBA
:1002E20064809480500BC3E49541F541E49540F558
:1002F20040E4F545F546AE40AF417C007D0A12016F
:10030200F2ED2430FFAB42AA43A9440546E546ACD0
:10031200457002054514F5828C83EF12017BAE40D5
:10032200AF417C007D0A1201F28E408F41D3EF94DF
:1003320000EE6480948050BEC3E547648094805090
:100342001AAB42AA43A9440546E546AE45700205EA
:100352004514F5828E83742D12017BAB42AA43A908
:0E03620044854682854583E412017B020370C8
:100539001206181204CB1200031204251202287F96
:08054900E87E0312051780EEA5
:1000030012063D1206331203E08E288F291203E0F5
:100013008E248F251203E08E268F271203E08E2273
:100023008F231203E08E0A8F0BE5292525FFE52890
:100033003524FEE5272FFFE5263EFEE5232FFFE5CA
:10004300223EFEEF650B7003EE650A600D7BFF7ABF
:1000530004797B7D017F010204A47B007A00790E81
:10006300AF29AE281202D27BFF7A0479817D017F0A
:10007300011204A47B007A00790E1204507B007AEB
:1000830000790EAF27AE261202D27BFF7A04798560
:100093001204507B007A00790E120450AE28AF2967
:1000A3007C007D0A1201F27B007A00790E1202D2E3
:1000B3007B007A00790E1204F2AE28AF297C007D12
:1000C3000A1201F2AE04AF057B007A00790E120228
:1000D300D27B007A00790E1204F2AE26AF277C00A1
:1000E3007D0A1201F27B007A00790E1202D27B00A4
:1000F3007A00790E1204F2AE26AF277C007D0A1235
:1001030001F2AE04AF057B007A00790E1202D27BB6
:10011300007A00790E1204F27FF47E011205172291
:100228007BFF7A0479897D017F021204A4D2B61279
:1002380005CF1206087508008F091205E2C2B6122A
:1002480005F5AE08AF097C007D6412019D7B007A3C
:1002580000790E1202D27B007A00790E1204507BCC
:10026800007A00790E1204F2AE08AF097C007D0A0C
:1002780012019D7C007D0A12019DAE04AF057B0032
:100288007A00790E1202D27B007A00790E1204509D
:100298007B007A00790E1204F2AE08AF097C007D6B
:1002A8000A12019DAE04AF057B007A00790E120296
:1002B800D27B007A00790E1204507B007A00790E06
:0A02C8001204F27FF47E0102051714
:100425007BFF30B50F7A0479921204507BFF7A0472
:100435007999800D7A04799B1204507BFF7A0479AF
:0B044500A21204F27FF47E01020517F2
:100551008F80C292C291D2907F017E00120517C294
:08056100907F057E00020517E2
:100569008F80D292C291D2907F017E00120517C26C
:08057900907F057E00020517CA
:100450008B4F8A508951E4F552F553AB4FAA50A9FE
:100460005185538285528312013CFF600D1205694C
:0B0470000553E55370E5055280E122C2
:1004A4008B5C8A5D895EEF3395E0FEEF64014E70EC
:1004B400047F8080027FC0EF2D14FF120551AB5CD6
:0704C400AA5DA95E020450CD
:1004CB007F301205517F057E001205177F30120514
:1004DB00517F017E001205177F381205517F0112E3
:0704EB0005517F0C020551D1
:08063D00C2B41205A9D2B422D7
:0A06330020B4FD30B4FD20B4FD2218
:1003E000E4F556F557F554F55530B4FD1205BCE566
:1003F0005725E030B40DFFE55633F556EF4401F5CF
:10040000578007F557E55633F55620B4FD0555E5F9
:100410005570020554C39408E5546480948040C923
:05042000AE56AF5722AB
:100517008E588F59E4F55AF55BC3E55B9559E55A53
:100527009558500D120596055BE55B70EC055A80F2
:02053700E822B8
:10059600758921758CFC758A18D28C308DFDC28CBC
:0305A600C28D22E1
:1005A900758921758CB1758AE0D28C308DFDC28C2C
:0305B900C28D22CE
:1005BC00758921758CFF758AE2D28C308DFDC28CC9
:0305CC00C28D22BB
:1005CF00758921758CFE758AE8D28C308DFDC28CB1
:0305DF00C28D22A8
:1005E200758921758CFF758AD8D28C308DFDC28CAD
:0305F200C28D2295
:1005F500758921758CDA758A30D28C308DFDC28C67
:03060500C28D2281
:0F061800C29FD29E758921758DE6D28ED299220E
:080645008F993099FDC2992242
:1004F2008B5F8A608961E4FEAB5FAA60A9618E822C
:1005020075830012013CFFFD3395E04D6006120633
:05051200450E80E4220B
:06064D00A298E433FF2235
:05065300C298AF9922DE
:03000000020627CE
:0C062700787FE4F6D8FD7581610205398A
:10012300BB010689828A83E0225002E722BBFE02DA
:09013300E32289828A83E493220D
:10013C00BB010CE58229F582E5833AF583E0225078
:10014C0006E92582F8E622BBFE06E92582F8E222C2
:0D015C00E58229F582E5833AF583E49322DC
:10016900BB010689828A83F0225002F722BBFE0175
:02017900F3226F
:10017B00F8BB010DE58229F582E5833AF583E8F0BA
:10018B00225006E92582C8F622BBFE05E92582C866
:02019B00F2224E
:10019D00BC000BBE0029EF8DF084FFADF022E4CC46
:1001AD00F875F008EF2FFFEE33FEEC33FCEE9DEC0F
:1001BD00984005FCEE9DFE0FD5F0E9E4CEFD22ED55
:1001CD00F8F5F0EE8420D21CFEADF075F008EF2F9F
:1001DD00FFED33FD4007985006D5F0F222C398FD90
:0501ED000FD5F0EA222D
:1001F200C2D5EC30E709B2D5E4C39DFDE49CFCEE28
:1002020030E715B2D5E4C39FFFE49EFE12019DC301
:10021200E49DFDE49CFC800312019D30D507C3E4FC
:060222009FFFE49EFE2296
:10058100E4FFFE120123600C0FEF70010E09E97008
:05059100F20A80EF22D8
:10060800C293C295D29520B3FDC294AFA0D29422D2
:00000001FF
